:020000040800F2
:10000000004F0020B5010008BD1B0008B51B00080B
:10001000B91B0008BD020008DD1F00080000000039
:10002000000000000000000000000000C51B0008E8
:10003000CD02000800000000C11B0008C91B000819
:10004000CF010008CF010008CF010008CF01000850
:10005000CF010008CF010008CF010008D10200083D
:10006000CF010008CF010008CF010008CF01000830
:10007000CF010008CF010008CF010008C10200082D
:10008000CF010008CF010008CF010008CF01000810
:10009000CF010008CF010008CF010008CF01000800
:1000A000CF010008CF010008CF010008CF010008F0
:1000B000CF010008CF010008CF010008CF010008E0
:1000C000CF010008CF010008CF010008CF010008D0
:1000D000CF010008D11F0008CF010008CF010008A0
:1000E000CF010008CF010008CF01000800F002F89E
:1000F00000F050F814A696E8000CB244B344DA4578
:1001000001D100F047F8BAE80F000FA696E83000DA
:10011000A5EB040504EB0607AAEB0704A7F101070A
:100120004FEA15154FEA3414A4F10104AC4201D38F
:1001300000F030F813F0010F18BFFB1A43F0010371
:1001400000F001F8DBE71847FC1F00001C2000004E
:10015000103A24BF78C878C1FAD8520724BF30C8F3
:1001600030C144BF04680C60704700007047000055
:100170000023002400250026103A28BF78C1FBD8B0
:10018000520728BF30C148BF0B6070471FB51FBD65
:1001900010B510BD00F058F81146FFF7F7FF01F059
:1001A0001FFF00F076F803B4FFF7F2FF03BC00F086
:1001B0007DF800000948804709480047FEE7FEE750
:1001C000FEE7FEE7FEE7FEE7FEE7FEE7FEE7FEE707
:1001D00004480549054A064B70470000CD1B00083E
:1001E000ED00000800490020004F0020004B0020D7
:1001F000004B00204FF0000200B51346944696468F
:10020000203922BFA0E80C50A0E80C50B1F1200129
:10021000BFF4F7AF090728BFA0E80C5048BF0CC0D7
:100220005DF804EB890028BF40F8042B08BF704735
:1002300048BF20F8022B11F0804F18BF00F8012BA7
:100240007047704770477047754600F02BF8AE4610
:1002500005006946534620F00700854618B020B5D2
:10026000FFF7B6FFBDE820404FF000064FF0000753
:100270004FF000084FF0000BAC46ACE8C009ACE80A
:10028000C009ACE8C009ACE8C00921F007018D46FF
:10029000704710B50446AFF300802046BDE810401B
:1002A000FFF781BF0048704710480020014918201F
:1002B000ABBEFEE72600020070470000FEE700002C
:1002C00044F67000C2F2000000F08AB870470000E7
:1002D000022000F0FDB90000EFF3108072B600BFFD
:1002E000FEE70000014690F82100022816D10868B8
:1002F000D1E90FC3026822F00E020260026822F008
:1003000001020260012000FA03F2CCF8042081F817
:1003100021000020002281F82020704704208863FB
:100320000120002281F820207047000090F8211061
:10033000022923D10268116821F00E0111602F21DA
:100340001368C4F202018A4240F20401C4F20201BD
:1003500023F00103136015DD3023C4F202039A4237
:100360001CD04423C4F202039A421BD05823C4F287
:1003700002039A421CD14FF4803321E004218163AF
:10038000012070470823C4F202039A420ED01C23B6
:10039000C4F202039A420BD1102311E04FF4807390
:1003A0000EE000BF4FF480530AE000BF012307E0D6
:1003B00001F1680C4FF08073624508BF4FF4801361
:1003C0000B60012180F82110426B002180F8201081
:1003D00022B180B590470021BDE8804008467047B3
:1003E00010B5D0E90FCE0168DCF800300A6823FAB6
:1003F0000EF35C072AD512F0040427D00A6892068F
:1004000003D40A6822F004020A602F22C4F2020216
:10041000914240F20402C4F202025BDD3023C4F2D6
:100420000203994272D04423C4F20203994273D06A
:100430005823C4F20203994240F07A804FF480239B
:100440001360C16A002940F098806FE09C0727D5AF
:1004500012F0020424D00A68920606D40A6822F038
:100460000A020A60012280F821202F22C4F202022F
:10047000914240F20402C4F202023BDD3023C4F296
:100480000203994260D04423C4F2020399425FD030
:100490005823C4F20203994260D14FF4003365E05F
:1004A0001B0743D512F0080208BF10BD0A6822F0EE
:1004B0000E020A60012101FA0EF2CCF804208163D9
:1004C00080F82110016B0022002980F8202054D1EF
:1004D0002CE000BF0823C4F20203994222D01C235F
:1004E000C4F20203994223D140231360C16A002958
:1004F00043D11BE00823C4F2020399422CD01C23F1
:10050000C4F20203994229D120232FE04FF48063E3
:100510001360C16A89BB09E04FF480431360C16A6C
:1005200059BB03E004231360C16A31BB10BD00BF97
:1005300002F168044FF08063A14208BF4FF48003CA
:100540001360C16AC9B9F1E74FF400730EE000BF50
:100550004FF400530AE000BF022307E002F16804F1
:100560004FF00073A14208BF4FF400131360816A7B
:100570000022002980F82020D8D0BDE8104008478C
:10058000014600284FF0010008BF70472DE9F047F1
:100590000A684FF6F873CBF6FD7302EB030C4CF6CA
:1005A000CD43CCF6CC43ACFB033C6FF003070026F5
:1005B00007EA9C07C4F2020601F10C0AC1E90F67C1
:1005C0000227D1E9013E9AE83004D1E9069881F882
:1005D0002170176843F6F076B7433B4343EA0E03B6
:1005E00023432B4343EA0A0343EA090343EA08038C
:1005F000136000228A6381F8210081F82020002006
:10060000BDE8F0477047000090F820C0BCF1010F32
:1006100004BF02207047F0B54FF0010E80F820E0D3
:1006200090F821C0BCF1010F26D14FF0020C80F8E8
:1006300021C04FF0000CC0F838C0D0E900C4C56A32
:10064000C66BDCF80070102C27F00107CCF80070A6
:10065000006C0EFA00F070600846CCF8043004BF5D
:1006600010460A46CCF80800CCF80C20DCF8000054
:1006700045B140F00E000DE0002180F8201002206E
:10068000F0BD00BF20F00400CCF80000DCF8000052
:1006900040F00A00CCF80000DCF8000040F0010057
:1006A000CCF800000020F0BD022818BF704744F6C7
:1006B000B40040F20C0144F24023C2F20000C2F246
:1006C0000001C0F20F0344F6010201F035B9000049
:1006D00040F21441C4F201010A68024214BF0860EA
:1006E0007047FFF7E1BF00002DE9F04F82B00E68C0
:1006F000002E00F0FD8041F20042C4F2010204230A
:1007000040F2004E904208BF03234FF6FF7CC4F234
:10071000010E009300240123C1F2100C4FF0000AD7
:100720004FF0000944E000BF012704F00C030F2242
:100730009A402BEA020207FA03F34FEA9A051A439A
:1007400046F825204E6840F20C45F202DEF80820FB
:1007500054BF22EA080242EA0802C4F20105CEF8B8
:1007600008202A68B30254BF22EA080242EA0802BB
:100770002A60B303DEF8042054BF22EA080242EAEA
:100780000802F303CEF80420DEF800204FF0010346
:1007900054BF22EA080242EA0802CEF800200E689E
:1007A0000AF1010A36FA0AF204F1040400F0A0800A
:1007B00003FA0AFB16EA0B08F1D04E68664511DC15
:1007C000122E55D8DFE806F0340A444854545454E5
:1007D0005454545454545454544C5000D1F80C9024
:1007E00046E000BF4FF6FF72C1F2210296420FDCD5
:1007F0000022C1F2110296421AD00022C1F2120266
:10080000964215D00022C1F22102964210D02FE06C
:100810000022C1F2220296420AD00022C1F2310225
:10082000964205D00022C1F23202964220D100BF8A
:100830008A684AB1012A14BFC0F814B0C0F810B0D9
:100840004FF0080914E000BF4FF0040910E000BFAA
:10085000CA6802F108090BE04FF0000908E000BF88
:10086000CA6802F1040903E0CA6802F10C0900BF7A
:1008700022460646B8F5807F24BF203A0436376802
:100880000F25954027EA050509FA02F22A4332604E
:10089000CA79D2067FF583AF41F21803C4F202038E
:1008A0001A68AEF57E7642F001021A601A6802F00C
:1008B00001020192019A2AF0030256F802B040F6B2
:1008C0000002C4F20102904210D040F60042C4F28D
:1008D000010290423FF428AF41F20002C4F201024B
:1008E000009F904208BF02271FE700BF00271CE7B8
:1008F00002B0BDE8F08F000044F6FC00C2F2000038
:100900000068704740F2000044F6FC01C2F20000AB
:10091000C2F2000100780A681044086070470000C5
:1009200080B542F20000C4F20200016841F01001FB
:100930000160032000F08CF80F2000F005F800F0B3
:1009400027F8002080BD000070B540F20006C2F21A
:10095000000640F208013278C2F200014FF47A73C7
:100960000968B3FBF2F20446B1FBF2F1084600F06D
:1009700089FB0F2C4FF0010508D838B94FF0FF3034
:1009800021460022002500F037F87460284670BD2B
:1009900082B041F21800C4F202000168022241F064
:1009A00001010160016801F00101019101994168B3
:1009B00041F080514160406800F080500090009804
:1009C0000420C4F20100016862F31A61016002B000
:1009D00070470000002848BF704700F01F01012247
:1009E00002FA01F11C2202EAD0004EF20012CEF20D
:1009F000000281507047000010B54EF60C5CCEF23C
:100A0000000CDCF80030C3F3022E8EF00704042C37
:100A100028BF0424BEF103034FF0FF3E0EFA04F496
:100A200038BF0023A14399400EFA03F39A431143C0
:100A300000F00F0200F160430901043A03F564433A
:100A40006244002848BF02F10C03197010BD000079
:100A50004EF60C51CEF200010A684FF6FF031A4021
:100A600060F30A2242F0806040F0FD700860704739
:100A7000002804BF012070472DE9F04381B042F205
:100A80000008C4F202080446D8F800000D4600F041
:100A9000070088420CD2D8F8000020F00700284355
:100AA000C8F80000D8F8000000F00700A8426CD198
:100AB000206841F204098107C4F2020917D54107F1
:100AC00005D5D9F8001041F4E061C9F8001001071C
:100AD00005D5D9F8001041F46051C9F80010D9F8D3
:100AE0000010A26821F0F0011143C9F80010C007FE
:100AF00042D1D8F8000000F00700A8420CD9D8F87D
:100B0000000020F007002843C8F80000D8F80000D3
:100B100000F00700A84238D12068410707D5D9F86E
:100B20000010E26821F4E0611143C9F800100007E9
:100B300008D5D9F80000216920F4605040EAC100CE
:100B4000C9F80000D9F8002002F00C00082841F292
:100B50000020C0F27A0051D142F23413C2F3834133
:100B6000C0F60003595CD2033CD440F60010C0F23A
:100B70003D00484342E000BF606802280AD00128D7
:100B80002AD159F8041C890308D4012001B0BDE81A
:100B9000F08300BF59F8041C8901F6D5D9F800107C
:100BA00021F003010843C9F80000FFF7A5FE06463F
:100BB00041F28837D9F80000616800F00C00B0EB12
:100BC000810F96D0FFF798FE801BB842F2D9032020
:100BD00001B0BDE8F08300BF59F8041C8907D4D5E3
:100BE000DCE700BFD9F8002042F23213C2F34042E2
:100BF000C0F600039A5C4843B0FBF2F0D9F800104D
:100C000042F21A12C1F30311C0F60002515C40F225
:100C1000080220FA01F140F20400C2F2000000686C
:100C2000C2F200021160FFF78FFE002001B0BDE8A4
:100C3000F083000040F2080041F20401C2F200001B
:100C4000C4F202010068096842F22A12C1F30221CB
:100C5000C0F60002515CC8407047000040F2080036
:100C600041F20401C2F20000C4F202010068096806
:100C700042F22A12C1F3C221C0F60002515CC84000
:100C800070470000002804BF012070472DE9F041A3
:100C900082B00446007841F20006C007C4F20206A2
:100CA0000CD0706800F00C00042840F0818030689F
:100CB000800303D56068002800F04E81207880070B
:100CC0001BD5706810F00C0F09D0706800F00C0094
:100CD000082840F08B807068C00300F1878030687E
:100CE000800703D52069012840F0368130686169AA
:100CF00020F0F80040EAC10030602078000713D4EB
:100D0000207840072CD4E569002D00F02081706820
:100D100000F00C00082840F0AF80012D40F00C815D
:100D2000012002B0BDE8F081A069002800F08C80AD
:100D30000020C4F242200121C0F88014FFF7DCFD3E
:100D4000054600BF706A800700F1BA80FFF7D4FD46
:100D5000401B0228F6D9032002B0BDE8F08100BF95
:100D6000F0695FEAC00808D4F06940F08050F06193
:100D7000F06900F080500090009847F20007C4F23C
:100D800000073868C0054DD4386840F4807038607A
:100D9000FFF7B2FD054600BF3868C00542D4FFF733
:100DA000ABFD401B6428F7D9032002B0BDE8F081F9
:100DB000706800F00C00082803D17068C0033FF58C
:100DC00076AF6068002800F00981B0F5A02F00F030
:100DD0001D81B0F5803F00F01D81306820F4803027
:100DE0003060306820F4802017E100BF20690028BF
:100DF00040F20000C4F2422000F08C80012101602A
:100E0000FFF77AFD054600BF306880073FF56EAFFB
:100E1000FFF772FD401B0228F6D9032002B0BDE89F
:100E2000F08100BFE068002800F09A80052800F0FB
:100E3000B180012800F0B280306A20F001003062F9
:100E4000306A20F00400ACE00020C4F2422000210F
:100E5000C0F88014FFF750FD054600BF706A800798
:100E60007FF54EAFFFF748FD401B0228F6D903205F
:100E700002B0BDE8F08100BF0027C4F24227002085
:100E80003866FFF739FD022D05460DD13068800127
:100E900040F1D680FFF730FD401B02284FF00300E1
:100EA000F4D902B0BDE8F081306880014FD5FFF77A
:100EB00023FD401B02284FF00300F5D9F1E700BFE6
:100EC00040F20800C2F20000006844F6D351C1F2BB
:100ED0006201A0FB0101480A019000BF00BF019818
:100EE000411E002801913FF40BAF00BF0198411E45
:100EF000002801913FF404AF00BF0198411E002873
:100F000001913FF4FDAE00BF0198411E0028019100
:100F1000E4D1F5E600210160FFF7EEFC054600BFD5
:100F2000306880077FF5E9AEFFF7E6FC401B02283A
:100F30004FF00300F4D9B4E77068216A00F48032FE
:100F40008A4209D1616A00F47010884204D10020FD
:100F500002B0BDE8F08100BF012002B0BDE8F08121
:100F6000306A20F001003062306A20F00400306204
:100F7000FFF7C2FC054641F2883700BF306A8007A0
:100F800022D5FFF7B9FC401BB8424FF00300F5D95A
:100F900087E700BF306A40F004003062306A40F0FA
:100FA00001003062FFF7A8FC054641F2883700BF18
:100FB000306A800708D4FFF79FFC401BB842F7D97E
:100FC000032002B0BDE8F081B8F1000F3FF59BAE01
:100FD000F06920F08050F06195E600BF306820F4A1
:100FE00080303060306820F480203060FFF784FC6F
:100FF000054600BF306880037FF560AEFFF77CFCDC
:10100000401B64284FF00300F4D94AE7306840F4ED
:1010100080203060306840F480303060FFF76CFC36
:10102000054600BF306880033FF548AEFFF764FC1B
:10103000401B6428F6D9032002B0BDE8F08100BF50
:10104000206AB0F5803F05D17168A26821F40031B3
:10105000114371607168626A21F47411114308438D
:10106000706001203866FFF747FC04463068800155
:101070003FF56DAFFFF740FC001B02284FF0030067
:10108000F4D90EE7411E0020B0EB116F1CBF012008
:1010900070474EF21002CEF2000251604EF623511C
:1010A000CEF20001F0230B700721906011607047B1
:1010B0007047000070470000B0B582B00446006879
:1010C0000168C368426901F02F05202D03F0200557
:1010D00006D12DB1204602B0BDE8B04000F0F8BE08
:1010E0005FEA017C1EBF02F0010E03F4907212EB66
:1010F0000E0243D1226BCD0618D5012A16D113F06A
:10110000100213D000210191016801914168019101
:101110000199406940063BD4A08DE18DE28D002A03
:1011200018BF884240F0F28102B0B0BD0A0640F11B
:10113000E78013F0800200F0E38094F84110212949
:10114000F2D1A168B1F5805F03D12169002900F0D7
:101150006382216A4A1C226209784160E18C01396C
:101160000A04E184E0D1C16821F08001C160C16856
:1011700041F04001C16002B0B0BD00BFCA0718BF56
:1011800013F4807240F0D0804A0700F1D380D8E099
:10119000E06B016849688AB2002AC5D0A38D9A42E3
:1011A000C2D2E1858069202800F09E80206850E846
:1011B000030F216820F4807041E80302DAB120684F
:1011C00050E8030F216820F4807041E8030292B1D7
:1011D000206850E8030F216820F4807041E8030282
:1011E0004AB1206850E8030F216820F4807041E87C
:1011F0000302002ADAD1206850E8050F216820F0A8
:10120000010041E80502C2B3206850E8050F2168DB
:1012100020F0010041E805027AB3206850E8050F8C
:10122000216820F0010041E8050232B3206850E84F
:10123000050F216820F0010041E80502002ADAD1FB
:101240001BE000BF206850E8050F216820F0400037
:1012500041E80502DAB1206850E8050F216820F066
:10126000400041E8050292B1206850E8050F21686E
:1012700020F0400041E805024AB1206850E8050F1F
:10128000216820F0400041E80502002ADAD1202040
:1012900084F8420000202063206850E8030F216892
:1012A00020F0100041E80302DAB1206850E8030F93
:1012B000216820F0100041E8030292B1206850E854
:1012C000030F216820F0100041E803024AB12068B2
:1012D00050E8030F216820F0100041E80302002AC3
:1012E000DAD1E06BFEF7FEFF02206063A08DE18D96
:1012F000401A81B2204602B0BDE8B040FFF7D8BE28
:1013000049067FF511AF13F040013FF40DAFC168FE
:1013100021F04001C1602021204684F8411002B034
:10132000BDE8B04000F044BC626C42F0010262646F
:101330004A0706D5BEF1000F03D0626C42F00202EC
:1013400062648A0706D5BEF1000F03D0626C42F0DA
:1013500004026264BCF1000F06D55EEA050203D008
:10136000626C42F008026264626C002A3FF4DCAEF8
:10137000890604D51DB1204600F0AAFD2068406909
:10138000616C00F0400001F00801401800F0B680E8
:10139000206850E8030F216820F4907041E80302B0
:1013A000BAB3206850E8030F216820F4907041E838
:1013B000030272B3206850E8030F216820F4907094
:1013C00041E803022AB3206850E8030F216820F4A3
:1013D000907041E80302002ADAD11AE0206850E850
:1013E000050F216820F0010041E80502DAB120680C
:1013F00050E8050F216820F0010041E8050292B194
:10140000206850E8050F216820F0010041E805023E
:101410004AB1206850E8050F216820F0010041E83A
:101420000502002ADAD1206B012824D1206850E877
:10143000030F216820F0100041E80302DAB12068B0
:1014400050E8030F216820F0100041E8030292B138
:10145000206850E8030F216820F0100041E80302E3
:101460004AB1206850E8030F216820F0100041E8DD
:101470000302002ADAD1202084F8420000202063F1
:1014800020684069400640F1C180206850E8050F9F
:10149000216820F0400041E80502DAB1206850E8F8
:1014A000050F216820F0400041E8050292B1206854
:1014B00050E8050F216820F0400041E805024AB1DC
:1014C000206850E8050F216820F0400041E805023F
:1014D000002ADAD1E06B002800F0988041F6D13183
:1014E000C0F600014163FEF721FF00283FF41CAE67
:1014F000E06B416B02B0BDE8B04008472046FFF703
:10150000D9FD0020606402B0B0BD00BF401A00BF2A
:10151000216851E8031F226821F4907142E8031307
:10152000BBB3216851E8031F226821F4907142E89F
:10153000031373B3216851E8031F226821F49071EB
:1015400042E803132BB3216851E8031F226821F4FA
:10155000907142E80313002BDAD11AE0216851E8B8
:10156000051F226821F0010142E80513DBB1216863
:1015700051E8051F226821F0010142E8051393B1EB
:10158000216851E8051F226821F0010142E8051396
:101590004BB1216851E8051F226821F0010142E8A2
:1015A0000513002BDAD1202184F842100021216399
:1015B000216851E8031F226821F0100142E803135B
:1015C000DBB1216851E8031F226821F0100142E8D5
:1015D000031393B1216851E8031F226821F0100121
:1015E00042E803134BB1216851E8031F226821F040
:1015F000100142E80313002BDAD1022281B2204607
:10160000626302B0BDE8B040FFF752BD204602B0B1
:10161000BDE8B040FFF74EBD216A31F8022B6FF3F1
:101620005F224260216299E5002804BF01207047D3
:1016300010B5044690F8410028B9002084F8400015
:10164000204600F063F8242084F841002068D4E9A3
:101650000212C36823F40053C360036923F44053A8
:101660001A430261D4E904231143C268194341F2C9
:101670000C639A431143C1604169A26921F440712E
:10168000114343F60002C4F201029042416103D0CB
:10169000FFF7D0FA02E000BFFFF7E0FAD4E9002339
:1016A000192148439900B0FBF1F048F21F5CC5F2E4
:1016B000EB1CA0FB0C314FF69C734909C0F6FF737D
:1016C00001FB0300322303EB0010A0FB0C03F0200E
:1016D00000EA531000EB0110C3F34311084490607B
:1016E0001069202120F490401061506920F02A00F8
:1016F0005061D06840F40050D0600020606484F8ED
:10170000411084F84210606310BD00002DE9F041E3
:1017100086B040F600050446C4F20105006805F5F0
:10172000405100278842049702D006B0BDE8F081FE
:1017300041F21806C4F2020630680DF1080840F4C0
:10174000804030603068414600F48040019001984C
:10175000306840F004003060306800F00400019010
:1017600001984FF40070029002200390032005902E
:101770002846FEF7B9FF4FF48060CDE902072846FE
:1017800041460497FEF7B0FF44F67005A6F57C606D
:10179000C2F2000580212022C5E900072846C5E9DC
:1017A0000271C5E90477C5E90627FEF7E9FE0028BE
:1017B00018BFFEF791FD252001210022E5636C6230
:1017C000FFF71AF92520FFF705F906B0BDE8F0810B
:1017D00070B582B0044690F8420020280AD1134622
:1017E0000A4600294FF0010018BF002B06D102B0B5
:1017F00070BD00BF022002B070BD00BF00252220D6
:101800002563A262A385656484F842002168E06BC9
:1018100041F6595C41F6B96E41F6DD36C0F6000C72
:10182000C0F6000EC0F600060431C0E90ACEC0E9D9
:101830000C65FEF7E9FE019520680168019140689A
:1018400001900198206928B3206850E8030F2168AF
:1018500040F4807041E80302E2B1206850E8030FD1
:10186000216840F4807041E803029AB1206850E892
:10187000030F216840F4807041E8030252B12068F0
:1018800050E8030F216840F4807041E80302002A09
:10189000DAD100BF206850E8050F216840F0010050
:1018A00041E80502BAB3206850E8050F216840F00E
:1018B000010041E8050272B3206850E8050F216875
:1018C00040F0010041E805022AB3206850E8050F06
:1018D000216840F0010041E80502002ADAD11AE04F
:1018E000206850E8050F216840F0400041E80502FB
:1018F000DAB1206850E8050F216840F0400041E867
:10190000050292B1206850E8050F216840F04000C0
:1019100041E805024AB1206850E8050F216840F00F
:10192000400041E80502002ADAD1002002B070BD73
:1019300070470000704700002DE9F04381B0044675
:1019400090F84100202840F0B180884600294FF0EF
:10195000010000F0D6801646002A00F0D280002058
:10196000606421201D4684F84100FEF7C5FFA6846F
:10197000E684A1680646B1F5805F03D1206900289E
:1019800000F0988047464FF00008E18C206800295D
:1019900000F0968005F101090BE000BF47B317F88E
:1019A000011B4160E18C0139E184E18C002900F0E8
:1019B000878001680906F1D4B9F1000F0AD0EDB1B2
:1019C000FEF79AFF801BA84218D820680168090614
:1019D000F6D5E3E701680906E0D4016809065CBFB3
:1019E00001685FEA0161D9D401680906F2D5D5E73B
:1019F00038F8021B00276FF35F21D2E7206850E818
:101A0000030F216820F4D07041E80302BAB32068C4
:101A100050E8030F216820F4D07041E8030272B34C
:101A2000206850E8030F216820F4D07041E80302D9
:101A30002AB3206850E8030F216820F4D07041E8F1
:101A40000302002ADAD11AE0206850E8050F216865
:101A500020F0010041E80502DAB1206850E8050FE6
:101A6000216820F0010041E8050292B1206850E8A9
:101A7000050F216820F0010041E805024AB1206805
:101A800050E8050F216820F0010041E80502002A16
:101A9000DAD1202084F8410084F84200002084F844
:101AA0004000032001B0BDE8F08300BF022001B078
:101AB000BDE8F0830027E18C206800297FF46AAF3D
:101AC0000168490619D4FDB1691C0DD101684906A8
:101AD00013D4016849065CBF01685FEA41610CD418
:101AE00001684906F2D508E0FEF706FF801BA84210
:101AF0000AD8206800684006F6D5202084F8410006
:101B0000002001B0BDE8F083206850E8030F216891
:101B100020F4D07041E80302002A3ED0206850E84B
:101B2000030F216820F4D07041E80302AAB32068B3
:101B300050E8030F216820F4D07041E8030262B33B
:101B4000206850E8030F216820F4D07041E80302B8
:101B5000002AD9D121E000BF206850E8050F216894
:101B600020F0010041E80502002A3FF492AF20680E
:101B700050E8050F216820F0010041E80502002A25
:101B80003FF487AF206850E8050F216820F001007E
:101B900041E80502002A3FF47CAF206850E8050FB9
:101BA000216820F0010041E80502002AD4D170E745
:101BB00070470000FEE70000FEE70000FEE70000BF
:101BC0007047000070470000FEF79CBE70470000A1
:101BD000406A0021C185C184FFF76CBA406A016880
:101BE0004A6990F84130212B2DD112F080022AD081
:101BF0000021C184016851E8031F026821F0C0017F
:101C000042E80313DBB1016851E8031F026821F0C9
:101C1000C00142E8031393B1016851E8031F026851
:101C200021F0C00142E803134BB1016851E8031FE2
:101C3000026821F0C00142E80313002BDAD1202111
:101C400080F841100168496990F84220222A40F04A
:101C50007D8011F0400179D00021C185016851E8F3
:101C6000031F026821F4907142E80313BBB30168BB
:101C700051E8031F026821F4907142E8031373B323
:101C8000016851E8031F026821F4907142E80313D0
:101C90002BB3016851E8031F026821F4907142E8F8
:101CA0000313002BDAD11AE0016851E8051F02681E
:101CB00021F0010142E80513DBB1016851E8051F7D
:101CC000026821F0010142E8051393B1016851E86F
:101CD000051F026821F0010142E805134BB10168BC
:101CE00051E8051F026821F0010142E80513002BAD
:101CF000DAD1016B012924D1016851E8031F026880
:101D000021F0100142E80313DBB1016851E8031F21
:101D1000026821F0100142E8031393B1016851E811
:101D2000031F026821F0100142E803134BB1016860
:101D300051E8031F026821F0100142E80313002B51
:101D4000DAD1202180F8421000210163416C41F07A
:101D500010014164FFF7AEB90168406A096889065D
:101D600000F19F800021C185016851E8031F0268CE
:101D700021F4807142E80313E3B1016851E8031FC5
:101D8000026821F4807142E803139BB1016851E8B5
:101D9000031F026821F4807142E8031353B1016804
:101DA00051E8031F026821F4807142E80313002BFD
:101DB000DAD100BF016851E8051F026821F0010176
:101DC00042E80513BBB3016851E8051F026821F022
:101DD000010142E8051373B3016851E8051F026869
:101DE00021F0010142E805132BB3016851E8051FFA
:101DF000026821F0010142E80513002BDAD11AE054
:101E0000016851E8051F026821F0400142E805130E
:101E1000DBB1016851E8051F026821F0400142E88A
:101E2000051393B1016851E8051F026821F04001D4
:101E300042E805134BB1016851E8051F026821F023
:101E4000400142E80513002BDAD1202180F842102E
:101E5000016B012925D100BF016851E8031F026809
:101E600021F0100142E80313DBB1016851E8031FC0
:101E7000026821F0100142E8031393B1016851E8B0
:101E8000031F026821F0100142E803134BB10168FF
:101E900051E8031F026821F0100142E80313002BF0
:101EA000DAD100214163016B012918BFFFF740BD62
:101EB000818DFFF7FDB80000406A01214163016B8D
:101EC000012918BFFFF736BD818D4908FFF7F0B82B
:101ED00081B090F84210222921D183680246B3F5DF
:101EE000805F09D152F8281F52F8183C002B63D0AC
:101EF00003685B680AE000BF52F8281F13B9036942
:101F0000002BF5D003685B6803F07F030B7011684A
:101F100001311160C18D01390A04C18502D001B0BF
:101F2000704700BF0168CA6822F02002CA60CA6810
:101F300022F48072CA604A6922F001024A612021BB
:101F400080F8421000214163026B012A3CD10163F9
:101F5000016851E8031F026821F0100142E80313F1
:101F6000DBB1016851E8031F026821F0100142E86B
:101F7000031393B1016851E8031F026821F01001B7
:101F800042E803134BB1016851E8031F026821F0D6
:101F9000100142E80313002BDAD101680A68D20667
:101FA00006D5002200920A680092496800910099C3
:101FB000818D01B0FFF77CB8026852686FF35F2231
:101FC00021F8022B8162A5E701B0FFF7B1BC000048
:101FD00044F6B400C2F20000FFF76EB8FEE700005E
:101FE00090B0FEF79DFC06AC201D2421FEF702F9FF
:101FF0000220069001200A9010200B900025204618
:102000000D95FEF73FFE28B1EFF3108072B600BFCA
:10201000FEE700BF0F20CDE9010501A80021CDE9B1
:1020200003550595FEF724FD20B1EFF3108072B63D
:10203000FEE700BF002541F218060995C4F202062A
:10204000306840F6004440F0200030603068C4F250
:10205000010400F0200001900198306806A940F0CA
:1020600008003060306800F0080001900198306886
:1020700040F004003060306800F0040001900198E6
:10208000022006900020C1F2210007900120089054
:102090002046FEF729FB072002210022FEF7ACFCB8
:1020A0000720FEF797FC56F8040C002140F00100D1
:1020B00046F8040C56F8040C002200F001000690CB
:1020C00006980F20FEF798FC0F20FEF783FC44F6DD
:1020D000B40004F53051C2F200000C234FF4E13299
:1020E00080E82600C0E90355C0E90535C561FFF762
:1020F0009BFA28B1EFF3108072B600BFFEE700BF75
:1021000044F6B40040F20C01C2F20000C2F2000139
:1021100044F60102FFF75CFBFEE700000000000050
:102120000000010203040607080900000000010284
:102130000304010202030405060708090A0B0C0D3B
:102140000E0F101068210008000000201048000049
:10215000500100087869000810480020F0060000CF
:1021600070010008000000000100000010000000E5
:102170000024F40078506C31347A51584575635816
:10218000485347346D6251464F6F67424656336538
:1021900033687273446E39304D4447534732566941
:1021A0007533434676734A706E4C4F35636E785282
:1021B00073775938674E7571307753584A70335971
:1021C00058554B584847366E3954594A616D7455C5
:1021D000394C7A46715A58664948595559773245AB
:1021E000756A6B59774C6655485A3332536F623370
:1021F0005A4E365969714B656C7259653062354F6C
:10220000595758624166694750784A646C756B3219
:10221000384850534A7167326C3936436377706778
:102220005A4C78516E42544C57484369357556663E
:1022300037326D4862387735506D5A523257674F92
:102240004D755354436F677154734B6952613655E2
:102250006776734F66726E4B646F765A6334587943
:102260004548787935354C6578786A35305A674F06
:102270003045645A61375239506F4936465678783E
:1022800061624179596F62564A42536D47794149BB
:102290006458345533766B695747795561437454A4
:1022A0006F736B4D4842477A5862574B7765697434
:1022B0007357784574616E695968574B5269506617
:1022C000456D556E52393944453148574B454B4E53
:1022D0005645535762365038305343584576354348
:1022E0004A45425A72764B57674E706A38314C4DA8
:1022F0006274574E723358724A456A6759336D7A21
:1023000047646B54527430744B704849394D687649
:10231000413061796C557369657A377844514D6FF6
:102320004B47307934464C45654C387A656A796A52
:102330006E69486B305A57345A4F37565957764F53
:10234000356752347445346F71456A714A66343763
:102350004F67545747747848374C61475535346850
:10236000564D773038446176434E7154336433545C
:102370004967365930526B524A714456396B4E5A3E
:102380006A4E4832564154396E4F5677524C7976E0
:102390006E473861304D6D393166636378506869D6
:1023A000586A4E6C536B4E6D374D38797478614C6A
:1023B00030427933447069794E67746B4D4A766167
:1023C0006B6F647246514E7758706643643641674E
:1023D00055366D524A625A7A62474C78514574714B
:1023E0003244737674726955544B446469786271EF
:1023F00032385775524731757A6B6C75567941573B
:1024000067677857304666384A784F376D72483775
:10241000766A314A7047677731484948507A437045
:10242000497439414E526F4E4343504A45613477A7
:102430007073513844717064544B33624166343167
:102440004666543469444B64475274764770454439
:10245000696F6964386C39704436736846744169D1
:10246000636A445438673972535A717961525234ED
:1024700078475144646259736F765430503343390E
:10248000325459763836675A6470653267616268CB
:102490007263506433536B47356B4637427867300D
:1024A0006934424B787243464A51654D6E6B384AE7
:1024B00063546172457350494C314A52514D7772A1
:1024C0004F4D6A353846544D7142337666577A4AD5
:1024D000646835326F4B4871417857445A794C7172
:1024E0003630394A7A54784A353877306F474A451A
:1024F000536B48486A4C33324A376E5870394D47EF
:1025000042396561394E326874734B574B6F486678
:102510006F4943304B624E624954364374564346CA
:10252000486B4C6E3663386453737643553165415E
:10253000727150656541314150487A74346D615310
:10254000584D4549366A4B4B4B5664327658764D5A
:102550004650486251646F7A666D5653444C7835E4
:1025600052326A5059317342723932327853715053
:10257000413349616B3146573074697365636377E2
:1025800075644D3530797346475973314255726FD2
:102590006565794C6C716C424566546351336B3997
:1025A0004A62794E55756739764A474A72384949C1
:1025B00055364F42525069614A7543384C4D35305B
:1025C0005649487549534D427A4E30597971486B96
:1025D00054787855687950535A63767A714E5637E5
:1025E000514A574257474E67434543514C41453442
:1025F000493468557552614555544F744C386E33A3
:10260000497046756F69416C746B68694A34735AD6
:102610006530306161397772396A79724E705970FC
:1026200053756C357661316D6C33724D695155312E
:10263000594E6D7A4762543949593842744F507136
:10264000766F73614969335654527869785A6F4985
:1026500078653453345A536E71646F5549746F5AA8
:102660005369496444356845426F4C506B37744632
:1026700058594B4B32786736754246696B717633E1
:102680004F415070633851443430713154334938BC
:1026900063703166703635554642717A6D4E6F6D96
:1026A0004F504A346C5A3670513258706C47446CF3
:1026B00066375546657144637761794F7231446C72
:1026C0006E42747A33597879714A68517572434F02
:1026D00037414C313438416138597174424C684B40
:1026E00036363372437A663071466E6A726166615D
:1026F00032504E47553765737A7A485167367A4774
:102700005838464C74783575466948655262795731
:1027100041457558354942557473767A4564576F0B
:10272000433961617071693638514976634755455F
:10273000365977714B6841534F50573679456A483F
:102740006B483459707156474A366F71456B6C70DF
:102750004470557069747978484C347A78557A3079
:1027600041516E347567464333323479566672761A
:10277000486F764F5A34715A4F346F424235643342
:102780006F755A7778634A39564F7452504B6D4D76
:102790003233533231364B65705941505241707A61
:1027A00074666649464B58674E34784B6555735985
:1027B0004C4F7861546D4379514347353256345309
:1027C000305732596F386C366C3945446F64355820
:1027D0004E4B617964644C4E4753473845653752D8
:1027E000656A524548563968493050667A587A5376
:1027F000413336704364684E78304B4B70667034AA
:102800006B59496E494964777050696D6E324A7AE6
:102810006F54556337484E34394E535A6B477238AC
:10282000684C5163514B356B664F6B7A45666476E5
:102830005558367065347662363246366C71384E8D
:10284000773369743156486831374244506875317E
:102850006845346347596F56536545326847783346
:10286000793942676D4E6D454E4579665146466EE3
:102870007945363038433665325367667252596946
:10288000474E576E6D5963415653375564377645F9
:102890006E4F324E776665504D6852356A4D3075D1
:1028A00047454951483751575258524538337A486D
:1028B000447559307A494C55417A5275526F576F69
:1028C0004C4D645A687358336E37434B57307556C6
:1028D0004A3634554A5155734271636E6C567A5874
:1028E000614D4E7542316857566638723951374DD1
:1028F0004A707A534B6B4543544C4B3930644B48C8
:10290000356C3063623934503750704F7A69646483
:1029100057514E616C7A5467616452776B43654FCF
:10292000764879414D61793052737865497A67729A
:102930003364446F4B61743032304F71446C734474
:10294000724E557942714D46305A38657139436C33
:102950007674513873587331315864555039525424
:10296000374A3667563973714D675166377A724800
:102970007832464C4F445346384950574278346475
:1029800031564B4F714F4A384C764D62614F7A3118
:10299000496A315A6F59796B7863576D624353486E
:1029A00066594B30734B525A427631324B755A68E6
:1029B0006B30676165754D333671526A72456C656F
:1029C000704543726C5453614261774930576E31A0
:1029D00041656E4143453155567A55456E49486EBD
:1029E0006B4D46727A496C586C443578504170731F
:1029F000495330656A5473577832336638613830DA
:102A0000596A4D395662687A6F787476333051342A
:102A10004A6A766E56784273473361303336436F75
:102A200031386F7964644D747175586D5430316804
:102A300043316439644F75695A77586F6D7A5067BE
:102A4000544C57786C49556773346A3663716438EF
:102A50004B34706A75696358524E306D4D647737E8
:102A600065664B616C325249364F4D4C37496B535A
:102A70005371485778686C53754A35746374754759
:102A80006F6D474876614861387A6B544971447676
:102A900051756A6F3172304A733153334D784B55EB
:102AA00070304D5946727932784B345755597631DA
:102AB00074353057384553626955716531337776CF
:102AC0005350636E4A4746596A7968573770704B5E
:102AD0006836376E6C4442316E6C376179573053CB
:102AE0007958766A745137335237655673416D4D54
:102AF0003137687062614A774E66643650525A6563
:102B0000714E516D78614F6D7863707235363856FD
:102B100063447742586653496B7873303770457118
:102B2000516C6C69557877524167485844765A35EC
:102B30004C4F7959366E7357396D686D6770755A99
:102B4000764174546550624D6A303032626F33633F
:102B50007A375454474F44734B776C7777704645B8
:102B6000656578706771654E74464272394A4A33BA
:102B700046425631674D306A724E3352316C61367F
:102B80004B425463374A65724A78385142767841ED
:102B90006D743557396655586E30587539727047AF
:102BA0004B74393136767A716341676D4A44547893
:102BB0005279464B736333423568526C61393166E2
:102BC000587159794F484A4A5439506D786C4D6E56
:102BD0007636536C797379434152764266754F6409
:102BE00077663671514663333958544D30424463E9
:102BF000487A4F76526F6C7A3242634F6C356E6A08
:102C0000497376584D55314A424F6B593379733079
:102C1000474432444E78616142556270386141598F
:102C20005230374372345046536C61386966687568
:102C3000513373375A58657665765245336272530D
:102C400052324A6144496B70677275755A6C6833C9
:102C50004F4C54637943504C72313861656A33612B
:102C600066546F436B4C687953494638774F4752E7
:102C7000314F65366749676E673962347336464C43
:102C80006D337A784D6D6C3377426538547A793884
:102C90006135773358564B454673304B62666A6DE3
:102CA000664A78686971496668747A67616A396BDF
:102CB00073304E744357674255546278694833699C
:102CC000726C4C763357476C515861536F4B49784F
:102CD00074546B68767366444852584E62357A79FC
:102CE0003872544B6A5130323253746F6C525232D4
:102CF00048586F6B7741637934766B76614933411D
:102D00006C6A436B75654D7073594C61476A4F38F7
:102D1000666B6E315A42514951667042444D516260
:102D200035424C4A657938375972704B6972723145
:102D30004463495533734E6256614E49484E444D83
:102D40005A474D59534374386C79697770784C35CC
:102D50004565653374576772556E5A3730457672DC
:102D600037715A33793262644348786D38636556F7
:102D7000487542687041485A644D5936424D785002
:102D80006A4445347A4554344466764C523072581D
:102D90006D3653677A754C49664332644646306FE8
:102DA0003874464258644D4A45736A62557759589B
:102DB0004A6F5A6D584D6E4870456C776732527A3B
:102DC00065367652425068304A534D4B79326B58D3
:102DD0006B34614C536B656F55726973336E736BF3
:102DE000705146673153306F31454C704A586B779C
:102DF00065656F4A546F56364D6A36504D4C707744
:102E000030713371717A6D424B474F50694730478B
:102E100078354A776572527572427750674F4257DC
:102E2000594B757432644261567030764837387544
:102E300055715743366436475572514D5948735A48
:102E400032555742304574336F446E4832443674BD
:102E500064526434747072394E71394664665A6FC4
:102E60006F56527362396E466531394E73337751FE
:102E700073734275554D5A443053536B624F5838F3
:102E8000766A653933333337384656785577545236
:102E9000764F5047346D487364454231577A754BCD
:102EA0004E68386739364D304B4649467A6B543652
:102EB0005852696148424541344C545477387661E0
:102EC000356D50466F69683158786D76485A703262
:102ED0004A494561546F4E68324C703459325166DC
:102EE0005849356F797A6570793649525444767508
:102EF0006C387739594F556F6C694565306C324C79
:102F00006B7537694753375A447376554273383671
:102F10006B6C7665526853384373434B5841736A00
:102F20004B4A627537666D7170364C766F7A3064D5
:102F30004C67314F30307943417364577A48784C4D
:102F40004A694C6F326B3444474A426D6F4D474E6D
:102F5000655463736A41467242324B61363750475B
:102F6000705A5169734A3149425573413673734FF0
:102F70007A74686C6742447839317133707844727E
:102F80005177396168694B367230336D4B544E431B
:102F9000696369446D74677457643657536E71671B
:102FA0005346575332624F3971486533336C4C7511
:102FB000566E4A454C484C553562583667784F49ED
:102FC0006E574E48696545374E46444A69555651D5
:102FD000774F5057665556624961705A6335716A2A
:102FE00033686D6652516F6E6A474B3256424F4896
:102FF00034684B6C4253584F394F6A69426C464AA9
:103000004459435066584C586D3741586D6731519B
:10301000744A525759713439313069697334665181
:103020006751636A755275565450716D30497543D6
:1030300079474B564C653042646D6957674B5A79F6
:10304000504378654168344E594875444B516B4D37
:1030500033436A6E4D783034346D476F6941395867
:103060004A36384B4B363434416673644936776B95
:10307000664A347A7A44646B543179714A73657A5A
:103080005339614177314768334E6879544D6165F2
:10309000796B6B3379777A6751493766446C314184
:1030A0006D74453735464546614A4C697535756ED0
:1030B00073705A634576527059364F53384C614F8E
:1030C000713166767849506C426F6B6361314F673E
:1030D000776463707A50736C717353455551686FA0
:1030E0006E4A586C706E3662746B75393442686221
:1030F000726E635747526470767A6C7456423877B2
:103100004E5552487253494E4A35664277454D37BF
:1031100046616763336F68325A556F4A5978784C05
:10312000594F79727A627555765963334F454A46DD
:103130006B427A6B4335554579577441784D784BDE
:10314000533937377757566C7A453675343169338A
:10315000436E677051535849436F52484A514F4A22
:10316000317742587A6F75756C656F716569417812
:1031700050315A59457A4669704339766E515A67CB
:103180007539746635414D4C674A346C7A7A765895
:10319000663232357733473054343352646F71724C
:1031A00078557363696153566C596942534B536A3E
:1031B00032624962364A3349494F56416771387421
:1031C00044354376573456365A4D6A3350316C7114
:1031D0004438426F41353666714D784342613963F8
:1031E000376573543378456738524B6D6E5453636B
:1031F000585367363174477A3470556772636A3151
:10320000376633327350773965544F54654B664F88
:103210005178544574377A635237716369715658DF
:103220004D39785A76436D4F3933453034555A7499
:103230005847334A7478467A55316335676933495C
:103240007A566472475735627353654832736C36E9
:1032500055447A46737661347A576F4A4B614F70A2
:103260006C735473324A54375267677158445831FB
:1032700051423675755752736F49544B364B734AEA
:103280006C575A747A32504236636659646A63796D
:103290007271657A6B744E36376567377251673273
:1032A0004A596F3432785030304D304A6557694C46
:1032B0004D66364E777A3963734B4B654974655466
:1032C00042467366664A634E6A5A386262455039AE
:1032D0003377424775544D316E76375A47786A4393
:1032E000597A6D4350547537356D78444F79647011
:1032F00067624A7A5271756965486430434A6E6202
:103300005154703745714572634855546F62715717
:1033100049624F6A677A726C5257394675713566E1
:103320004F4F5536336B3861666B484478714B4369
:10333000386C43734265396349336B7956766B4613
:103340005535354842744735443836534634476A14
:10335000495969757348566F6941646761593249C3
:10336000755844716B64445876736873474135737C
:1033700062464135314C36693537754144565058AF
:10338000347652415847436F6F4A6D584F554A53F0
:10339000534C4C66696B384C6C4E6530366A6E6BBC
:1033A000464F7A4B6F4F546B3852424D6D356E52CB
:1033B00049767A626A48364C616C48695558675755
:1033C000336C626666446E644F4C70524A59566460
:1033D00052394A484D4C784A61594E6C7562673192
:1033E00074416A674D5044754C3178514743596375
:1033F000386D74346A6C6E447247687656633673FF
:10340000536A6270435731566168634A7941766CFA
:1034100078644A68324F5632485A415649645A5283
:103420006A4E544A6B5979536C6E436A677A3146D7
:10343000626543396E6F6761506A526E41633959F4
:1034400057344A5A4C54664E643978385A3770713A
:1034500036796F6A6A46505275596D6753334136F3
:1034600034677772536A67326E41346C5833696DD2
:1034700050744B676C594C3648766B4868785149A4
:103480006F78347661636C74757A696D3241443259
:103490007964316B7347324F426F503342514A3433
:1034A0004B57674C674E6A78645977336D63525255
:1034B00056456D77635562347564326E3037564BBE
:1034C0006A546C5A54584B3058314C4C50754730F4
:1034D0007A63385555564C6737776D6D574C684C45
:1034E00058697675617A427574677856554D6B37B1
:1034F00045687463513278564861436576415A6D28
:103500006A6643517064564336346737426D7A7346
:103510004A67445445496F6576346C42775A764120
:1035200032696F46764670587149654755694E460F
:103530005A6A3557724F3652693948386A69774C3A
:103540004A7A71507965445A49444357345A586D00
:1035500055724D36736A49704A4D32383445365982
:103560004A6C454D743569656A7876316D6D725077
:10357000703877613150346C75393737793073383A
:10358000654C3746423943634B534F544754714857
:1035900062666E51425967583747625A313745352E
:1035A000563375723235474868544C4E4346483658
:1035B000727052704A45594931646E676754595761
:1035C00050795163364B6B314B4455424D786C6AA0
:1035D00052304D5452316F627630636E4353644BB8
:1035E00032667172774F73447248515331355A5471
:1035F0006464366A476B6B38727076764B6B345204
:103600003232617234674461646E7366626A50512B
:1036100052766A71554B7678364D4B7A5651324A0E
:1036200063787652616F5A514C41394A656D347AEC
:1036300079797A7A4566536F70454E79794843783F
:103640006B7273394277446A76796543676B526B64
:10365000587137506F50645674374F57314F466F1B
:1036600055553272306A43764A66794643527570D0
:10367000714877475273734C4750556265376E7186
:10368000386870336B4E754750564F754B4E7045CA
:103690003776667743534F784E546B616D5153695B
:1036A0006F354A7948757A72526365694C71554233
:1036B0006633776A48444867377130594443373036
:1036C00056317475324D76515A36353773527852B9
:1036D0006768654746373434346444755A576D66B5
:1036E000356D67577757547843785963675A6F43F6
:1036F00054665761463066673268386F314C3779A7
:103700004449476C334F4D594D7666373048375AE8
:103710007254547947684B4349534F364532336CA2
:10372000644873764A41416B567A366A564E627ADD
:103730004C6844466967504B573861426D327A4352
:103740006E524E586469363831733378414E34398D
:10375000727339633879376F534C4146316D7362F8
:10376000564170696C42537A7059325448436553DC
:1037700039495176324838776B53326C693549682C
:103780006652777A57307543325367474774654AB4
:10379000427871497A645A566B4A76596242483582
:1037A0004F4C4C5943706C4530487A5A36713351FE
:1037B0003533316E70774447424F70586C38423819
:1037C00074416F686F756C68777A6E6E4A6B4F499B
:1037D00047455865756961666739303477327439A1
:1037E000586D47784E78666D71596B333049663045
:1037F0006B7174544A394765636B6C655239495132
:10380000336E484C314E6430595A51756C543062A5
:10381000615767396D53585A53544C436C614E7914
:10382000646B4C6D64674649426E3954527A6775D1
:10383000355264506D655552754830544D62694635
:10384000577A305A42576E494D384C68314250527F
:1038500042624852594563357255336638535A4867
:103860006673303237306275726E39546A3630356D
:103870004A5956725752326B4F7861384E4F415009
:103880004B3349635264625175715876576F445691
:103890006C507048454B674C586248436B515632E8
:1038A00062596556417343774F744F596E35697548
:1038B0004C78754A3571365272714F47773456518C
:1038C0007964676579764730744C3852336B477842
:1038D00067425337494754465465463849584F6CF8
:1038E00048526D6E7038307630355576344C356AC6
:1038F000454E643966613657684B4C746A3079338B
:103900007246696E42344D6E354866656562584848
:103910005A6F394A5252694A68594B454E596E6A34
:10392000694C6A575154357578485657304B68433F
:103930004946756F35646733556853505A76494226
:103940004A6C7873546A376B7279736D4A7154504C
:10395000575A4671507A41485665724F594B4157F4
:1039600038315370546F506F374A50644A3654623E
:10397000553568734A6C417147746C4C6E36515AB8
:1039800076716B474F444E4B483670737A307035C2
:1039900069304F377A5341793656714E7365617A83
:1039A00051796A5836536D4C656F374F77626E6C3C
:1039B000305964474C58573070366B6A7270635692
:1039C00038784F666934584A4F5647777633664899
:1039D00073624C666E645455793343476E78564E25
:1039E0004761644C65445071456E73713556553866
:1039F0003262664C3772666C45326336456174508C
:103A0000793271303334416433336F683773756D95
:103A100031376E563169487A6D466F376739415094
:103A20007A747864464E6E643455655769455A50C9
:103A30007139567858644F6E3855757734636A68B3
:103A400036524D586859694B6E50306433796F4D1A
:103A50004D345367563042705A466E7872666E6FB8
:103A6000433742776E63526F505249583145745113
:103A700039314865324C4B7368517156337A313263
:103A80004536336B44694746597066377A78314317
:103A90007A316A3277696D685A4E6C4F6E776B6116
:103AA00063566D76754A4E62564D3542755575684A
:103AB000647630613451715963763572574A756F47
:103AC000524452475359365A6149726945367056C5
:103AD000646665476D44736E4670727767635639E6
:103AE0004450626D766137397473334F724B445A68
:103AF0006D7845634E526356785A6454656A7274A1
:103B0000664542526C7A625463765A566666696DAF
:103B1000653457734B746A4B6839423436653244A6
:103B20004A6674596D573344336C444B7441425464
:103B30004B724A39304E515462454F335444747578
:103B4000376B796943394269784132626C666468DF
:103B500031724D62505A534264504E667644484327
:103B6000714167576C664C38684F77716E4B4E4C9D
:103B70005A6D6536796D554D6A3365526E303675BE
:103B800079566E6C4F71746243794A73586D6A76D8
:103B900057506432316752667777337163426936C2
:103BA000717166796C324258374E7A344835736396
:103BB000664F756569366B4C33346B636C30326FAE
:103BC000354958356372696139396F4F3477355AE1
:103BD000684D614E64625953713055734249734662
:103BE0006A38426B684962687735704D365734766B
:103BF000674F4E4473766C637047446A6F457842F2
:103C00007937703739396E4E504F386E38535357B5
:103C10007A55335437696A6C7977334D5530714B27
:103C20006654475251524F75464D5065315A446E55
:103C30004D4B344344433771795838654F6D54398F
:103C400035517043366B48504A735437506973325C
:103C500066684245524B724744334B574E707A4523
:103C60004C6577747A6D634669336A53784171485D
:103C700075544D6463384B797A706C3859657A3372
:103C8000474A6E585736496F6B4C6130394654730A
:103C9000616842427932386663356D7635335374E4
:103CA0004569686F6B4A316233727A3436664568AB
:103CB0007158647A717644346B7331487057584F39
:103CC000524B4E556964503570544C68467A347581
:103CD000433446594B4652676B4A496F6F534F50B6
:103CE0004A5372694762453337434D763569765496
:103CF0003463673748595331754F726A4C41665483
:103D00006E4138766A79413032537976423830766E
:103D1000437349624E72657243366B6E66755A51D3
:103D20006376697859624E30346B68686D514275BC
:103D300041675A584D664E58454363526A68343756
:103D40006A3068687451384149416134426C344585
:103D500054445334466A564C426B5A51774B64561E
:103D6000534B625A3972354531374C766A64585232
:103D70005333593246473179304C674A34564551AE
:103D80005631684D35546C6277356D48504F7747E2
:103D900068633453507839526D5962525A587737A4
:103DA000394E5754627A50554E7342514E3579759B
:103DB00038467966664762326F43765178423337C8
:103DC0006373335A49614556506A6E725778704E24
:103DD00052595671394B6D304B4A695375324231E5
:103DE000536A376B69464458546530744F574F33A4
:103DF00047654A355556504861745145364E5739D6
:103E00003130726374704C4F7A4456494936653389
:103E1000366B716A5A45473871377A5650687765FC
:103E2000646C4C5232465047555867456259396B5D
:103E3000333833724C385A6F787767424D31625756
:103E40007767736A6F5830384338784F4534686500
:103E5000617150583551736F6574506C6741497882
:103E60004638366C6967314C4E634268354452516E
:103E70004C55767652433335354F533044424C4699
:103E80006B665654477A515A3057377A36724E6BB2
:103E9000317764734C6171476A65537269484A555A
:103EA00044744B596568454164453935536F4750F3
:103EB0006F6E53487564757A6B4C696B356C535AE9
:103EC0003757675430626E4F34704F4E4A327933F1
:103ED0004F6B757A4A30526269484630786475375C
:103EE0004D346849504E417935347574536C3338CC
:103EF0006C4276446E565A435479366E5773345A30
:103F000052335434616546506762774B727445355D
:103F10005A423934787574357A397548434473395F
:103F200041655A376444734E5075375035533342A8
:103F3000344667383571696645675A6F6433723144
:103F400078787364764A486E6D655851737272342E
:103F50003553724E424854746F484F6C4D576B78CE
:103F6000434959454C446253665642667343774C05
:103F7000624C68497142737764695033697239469B
:103F8000366C6656454B734A6858377341384177EB
:103F900030586A517A414937467877474C374879E3
:103FA0006A36593262485635324431656245645A40
:103FB0007A59693645684C6558317879383738769A
:103FC000665879666E33737371416F413672615210
:103FD00073706F3433684A5970447333384F646870
:103FE0006E6F387058684662353636336667446C93
:103FF0003171584D4F6D434D4E7646756E43574F58
:1040000044676D426A30394233774C456D62376E92
:1040100056716848426B62475859594E6753477A00
:104020005842784C3242793534654A714E7A537031
:104030007355443676796B323575536E34734A381E
:1040400050497570445956377A6331744A4D6559F1
:104050005970616844364236676A37725A487A65E1
:1040600078767433774B666B4B627977556D4F4337
:10407000574A5A636B575662396A764276365169A7
:104080007776556F6545706C7877766138596644F8
:104090004F31496D4930385273536647524A684B25
:1040A000365636306953364A466751664454584549
:1040B00052513344627338344865337465574766E8
:1040C00075626866594366703267775276504571FB
:1040D000414E5A5634514F6F62384F4C697A3550C1
:1040E0007269646B644247576B325842433961517D
:1040F0004871614B5153395A514B474141316C46DC
:10410000503268554C616D4E66424F4948464243B5
:104110005542653050386C52434E567576717577FE
:10412000585645707250616C3637706169716E31E6
:104130004F79394649384644774D34634D4D4B7A73
:10414000444D634358506532304133354169504CDA
:1041500037457A5638355476755A6B776E4D644AC2
:1041600059616C4371756B4849674C76716870444E
:1041700043416641587435395467665576654C48F5
:104180004A4B6259464A4B4E714978424F4B4976E9
:104190006273624D393042754B61387233475563F3
:1041A00071633475526B64334B52613070584D6299
:1041B000414C5A767A535858355932506B663031E3
:1041C00045364470694C6C5230737A5A31387057A6
:1041D0003770317276794171695253346356597A26
:1041E00044574868446F515844494F7158494948A9
:1041F000737A476256687238566B79357667717292
:104200003465476B574559456F7756764C4C7475F6
:104210006861644F61467543476B63754F456D57E1
:1042200042343658534E6B69646A656E3538305A7D
:104230003563636D736D4458463354337154356A36
:1042400073307944546C7672677233794438734DA5
:104250006A506D6137797954643750314C30586FFA
:1042600078716F486E3557423857687243574D33EF
:104270005638566762567555774A67437361524997
:1042800045536A306D314548506C4B6D7261794EC3
:10429000396E625351334B31327734555562446233
:1042A00030736B3938744E757A63484462695A6B5F
:1042B0004F6C6C6642415145475264496F4B77657C
:1042C00030635A5939447155426644504B6A4B6BBE
:1042D00074423235763151413448756B5934305718
:1042E0004D59707037446451446D45576B4D70465D
:1042F0006C6B584E4331766244316952536D73543E
:104300003371366571554636346C4B44754C38758F
:10431000734A78395A30526533377064646B4C5A3B
:10432000756949634653636D6D304F6A464936750A
:10433000644B5473746A497968706E39685479753E
:1043400073546E6B3446374F4B7348686841484925
:104350004877627250684C31796C66514A36786998
:10436000413236686957654E6637417A4E6A6662F1
:104370004248623265724D397948665171746A6497
:1043800044597A48317778736532655966543539BE
:10439000444C4F4D6D75586F5A4A546A636D73594A
:1043A000484B7A756267616B4C534758684E434A75
:1043B0003978755336583975723766763034696591
:1043C00077375A657164587131673445706F766F0D
:1043D00052306A6D6349314D4D3767447130414504
:1043E0006358346D646C5031536E32656246556C5F
:1043F0007259635A316A5A655276537839387A5508
:10440000326F4B34475142395965534968547A6B7E
:104410004F4C397476363278415A6576384A4D7247
:1044200046365039354656306C47714433714C41ED
:10443000397078387A6166474F43386A6C4E634BFF
:104440006E36696B45416F5A554D636E714A6C4BC0
:1044500076614D377052484A4B4D42774F3552483E
:10446000344173676F4F3837576A5644695545680A
:104470004F495078436E3236736271624F776933B9
:104480006C5656726A6661766A70325A676E427509
:104490006C736E786B513678545A43794B36587634
:1044A00049537868564B7A39704374393543456FB0
:1044B0006535417043786A4B5179446B6950743269
:1044C000743239703771436771476B7253425A6562
:1044D0006979786A364339484C686B55545675513A
:1044E000634576306344646D594C32704873625A48
:1044F0006D4F574A43524B326A77547963386D3364
:1045000049734F4E6B4B59465962336E434C70673B
:104510003936364E576B6D61786B72713967345826
:104520005166737764636366616B7968354964319A
:104530003872654B724C56494C555430647A4D7301
:104540007164327979335269497462705875597659
:104550006E5A7774376441585A68357A504A6E49B2
:104560003968665652416348794D42726779786A74
:10457000644A7836713841516F52554C4732336D29
:10458000316F556B3336714A566A57505A49674EE8
:1045900058534F324D5262627A4A3866795A7730B0
:1045A000707678576F48416F6B514D3641736C4D43
:1045B0007951554E4B4D304E73474363453330323E
:1045C00055323956594539645863583676544857E8
:1045D00074783547457766454D517A6450335A6C47
:1045E000504C533053726E4C3047554B4F454170D1
:1045F000386A6452684F674B66366A365343514295
:104600006644476374523149673848497653375591
:1046100030474739587458496A6B654156774B6340
:10462000734472585336524466486F6177733161F0
:104630006E72413444597351374D55654E7A465028
:1046400041696769426A5A55646D675861553457C4
:104650004B53585075786867576A68636A66664E48
:104660006B764C4334504132536169566931337A29
:10467000654D7255347961703075684D39425057C7
:1046800068566B64663170633072724F5435756969
:104690003434654934726E64367174714B374744F3
:1046A0007A696F4D3179567963693957655A334A5A
:1046B00049346C7037715030374E425743456B590F
:1046C00049726C6B4F77745A43643661386558533E
:1046D000516E6E525052534378724450516A307545
:1046E0004153377A75506D317A644C4B3758345A90
:1046F0004232686F5A616233536C303650424448DC
:10470000763561716D765A317536516F70516465C9
:1047100069714C4B536430655772506F4E627072C2
:1047200074506C454F453867575667475367724713
:10473000634B7A4D4535516139646F4F6F417673E4
:1047400063314E475A4E5332453134476D51574DC0
:10475000345A32623563445654744F667672484A0E
:104760004C524A414948443275377A4C705A5A3053
:104770006B7356726532784C51554A4F30326B6FBD
:1047800048776B78337565415A554B524C794D36A5
:10479000507243756F57663232327A684446354BF1
:1047A0006575544F6B71495A33554E355933754FB2
:1047B000625144335A536F7253686C6F386B4B4A73
:1047C000634953743767304941476F487365314DCA
:1047D0004F6C38657368773143535053376D367774
:1047E0006E70326F76744F4452736934633230594D
:1047F0006D63537A42693632524756357064415878
:1048000077616C49714545317537456B4258326A5D
:104810007A754B4375787A706B7052715A64757AF9
:1048200058456A6C33727166684C4930795A3868F9
:1048300033434E35435343655643646965664F536E
:104840004B5A4C4C364177796D5367717A425172AD
:104850006F63463033464654505972794E51743026
:10486000344454334A595A30354277436A66746B3C
:104870005A304E346E6264574449374A635144613A
:104880006A6F774647487335336B4E4E633375789E
:10489000747862776F6B48694158756958304F3743
:1048A000776B39745271713777494A766C4B494846
:1048B0004F413242427179736E39304959766933CA
:1048C0007256596B43476358426D54705542623279
:1048D00044356978333462663632715238634579CB
:1048E0004C6B784B65666F695830664F7266384915
:1048F00069514B49465278577A4D316F346E745036
:104900003655676735703948434956303334694DF9
:1049100053713435596130376F67616C7757447321
:1049200030366E31386676326F367248446B6F4C73
:10493000775873416D4E776630776B6D324E4235E6
:10494000524D427572365855576D6E463839477616
:104950005854336572544E6D4E46544F6A537936EF
:104960004A4C4C5446655738696B4E6A355A6F52FB
:10497000797251426D5447596A4E446D6F413768A0
:1049800050736E714E76777877364F6B466F5278EC
:10499000794F7A4B615268747741766B6175313922
:1049A0006349784F6C47456267505369665A4C714A
:1049B00050636D336C32486A375A73754E75394B94
:1049C000347232396F49567978586A4272384E5A81
:1049D000714774775A696F6C6859673733446664F6
:1049E0004D654F3347774B34567670394B383339F2
:1049F000364B3744496A4F53444C794E4857356ECD
:104A00007A7378594B557548775A7757575662419C
:104A10004446513356336D4B6A645179394D6D6A52
:104A200049436B5470446B725556586C3759664302
:104A3000414845494561444A48494D717441356191
:104A4000734939724C3856356D6230396C506B662B
:104A5000484C5568786F53723462565556476232E7
:104A6000536A6B477978684453477A4D6F3851459C
:104A7000454B70354D647147745961334F6E4C79B5
:104A800069595369396E5162636957355956726174
:104A90004A723859527341793348575832457437FE
:104AA00051334C48384E4B71715546564A38656FF4
:104AB000624D736973657238715A6E36635147621D
:104AC0004E506E62316277717043455244334D31BE
:104AD00074786F6250564E56366C53636A57474C23
:104AE0004F394A655A457836633931356A424B63E6
:104AF000784152394B44313344684651556B383014
:104B000070346A304D3543546F58703156386B4F9E
:104B10004D6B50543737586E63526A516938425062
:104B2000696A76423254787651594F6165696C668C
:104B300042787A545558786B653662535454456DB3
:104B4000554166776173365A6C766E737734447765
:104B50006E7A4A71657676626146414A6A654A694B
:104B6000346B554550444A425230787077776475BB
:104B70004B48533250564672753933526C59364E43
:104B8000666D4C5050446D334857694952657362A5
:104B9000366455764F6D6E324E76574664343372B6
:104BA00072466D736578734D6F4150584F62664C15
:104BB0003164366C5554385437524179524A6D6BD2
:104BC0007A4441347144784F743831576877706A49
:104BD000584674324D6635456469426468466F666E
:104BE0004B746B4A4869695234367A35723432599B
:104BF000715550544E41796A4151617955547770DD
:104C00006F41575A6263685835594F58686B4D4227
:104C10005A36326D6B704A41585566686537503068
:104C200051474C737241396E384F774B33525A4C5F
:104C3000775A71395952334A697A615952546233F9
:104C4000464B4254705474345A4E63706C437439FA
:104C50007A4F4961324968584774507A6B387859AD
:104C6000426E6D4258347343476939526B6B394712
:104C700071746B4D72594A363875704A4F75776B3F
:104C80005875597A31344256344E45334731713074
:104C9000716E354649784A52426962487A4A426D95
:104CA000426872674E574635713253585564577093
:104CB0004B44727179724A304476384F5850746A56
:104CC0003568666A4C6534673059346549635961A3
:104CD0006F32434370347153514D625459354173AF
:104CE0005148376B33617757797378617279625ABB
:104CF0006C6E494E304C773069677A367172616FED
:104D000069797966475036427937634F3832456161
:104D1000545970573268516D314A654C634247515E
:104D20007134495A6232385343694B587A72485148
:104D300035694B6356473873384633567131744979
:104D400030314E677A6955436777344F526F6954F3
:104D5000446F754E5379674734384B484C4F384A47
:104D6000655A4B7637386775696275436C704A547B
:104D70007454504944305A454F556733534B486833
:104D80005736336B7A614A54377553316472695AB6
:104D90004C766F644238523073466A33456D376CD7
:104DA0007430417A356E4165454645486B635151D3
:104DB0004C786D355663734830753172706F477338
:104DC00030427977336F36595573325768566B6E68
:104DD000366C34437732367A72575871387A6C4E63
:104DE0006A446F624C677244516E50696144435724
:104DF0006E48473274667234476D484A7255664A47
:104E00006D62554A6639724A656A78794C546E5AB1
:104E10003158304F30467173597335325935697195
:104E20004C4233784567496854456C646F4235524B
:104E30003831616D676B63346E4442535844566D2C
:104E4000614F5974785671383867583063617047CC
:104E5000535558574F5367536D73733578715A567E
:104E6000614B356646753265416C4333376C784922
:104E70006455556F6A61356676794C75344B583296
:104E80006D764C3078785865776957356B574F7920
:104E900076394F3230557366384F6C7844796458A0
:104EA000485A70744344734B6C4E476D357664704A
:104EB0003375646371335070713878456E4137676C
:104EC0006639365A68374544366D6545446B6E45DC
:104ED000686536336B736D375034495A6B72646E44
:104EE0006E7930613458566A517632484648584295
:104EF0006C7258745255696C4751425474685170C1
:104F0000626876446C31644555374F484836484DA1
:104F10005677634F5733326364744352753250444B
:104F2000513377334F6D54647974323972726747F5
:104F30004A6D6A73754333784864613054446C56E3
:104F400034576468556B613851716E367969657292
:104F500036366149734C32367A52444756706E4B3E
:104F60007134336E664E76656735345763654672C5
:104F7000317958713852396A514C74436F6B5546C8
:104F80003474423550756D7430634B744A4E7453AB
:104F90004C337555784E383634564559577246431A
:104FA00063766A496E6542483677545055556A4E65
:104FB0007A344237507A376D51736A30486A6E4797
:104FC00036693348616862583842744257734364A3
:104FD000536C5337714A7149544331497368644281
:104FE0006D4B334F7853754D74743935425A4C4577
:104FF0004976425361663932437A7A4D614E38526E
:10500000507377356B714E59396E437667775076AA
:1050100033766558305470416A634F4273746A50F6
:10502000324D4F77496B7142456F343045464E5390
:1050300035314D6C474A3879364E33724B383747E5
:10504000346B70464968724B50556130494A30663E
:105050006B5A4E745470647A344B426167376F36C2
:10506000614E4B393857446472594451505049622B
:105070006C68674C46736C6E796452726852434D2B
:10508000474C4172764977334E47386661377A79B3
:10509000745758616E505A5936377755774B4A686E
:1050A0006A3251736A75504C32504F4663433476BE
:1050B00032634552786B6652594E746241454439A9
:1050C00036446A7242377A42574D7871653635797F
:1050D000726D7350414648444544376B67654D7760
:1050E0006935315343747746474E68415767717845
:1050F0004A6776533768523641347530384D767684
:105100006C7239614A414653617431715A53684A2D
:10511000425A6C526753775345314178385354772C
:105120004143753474426461526B736469345A3814
:105130006C69734B785373304D65496248336F6BBC
:105140007A6A6733716948333744456B6159684AF5
:1051500065746A72335A653230636A32386A694FED
:1051600034576E4F366A324E6E584C3843344C6169
:10517000494F3475596375414F7645695A517131BC
:105180006D5776415167456C53307441454B667994
:105190004644384E7A6471384471414C6A785756A7
:1051A0003035697A58533871516F635961326B5396
:1051B000734379543967326176327364515931508F
:1051C000637672376B755957744D4B786844697ABA
:1051D000564555424A4172413639434D48555274FD
:1051E00041696C776737564D4452705A6844516A2A
:1051F00076763048357073305A543572795143346D
:10520000424A6C6A43367245714C67487747366547
:10521000734A446E37424B6A6D666655566E314628
:105220006C7A754A36717A63616D69496C774A6642
:105230007337694D527A685A495852714B374A6AE6
:10524000524E564A7179726F75595235414A314DF5
:10525000464538547835584B79656E78794D5943C1
:105260007947686E33645A487A43684E486F5232C1
:105270005778586A325255434E7A7A6574726A7416
:10528000685031384257664A4869746F5A654155CB
:1052900068576E7A49704B66675252616151584E39
:1052A00058634D5934644C6B4F666D447176346469
:1052B0006E66584F4A7446626C514D61624242724A
:1052C000364F625067643438474C715A56666B39B2
:1052D000516C495136534C6B6C443856326B4934DF
:1052E000624E443176446F7739694551494D3851A2
:1052F00047364942644F70477932416C594F347593
:105300006D6B54304A446658324D6D437A4D4A5560
:1053100062626D674D565532414249704E64556325
:10532000695855353153344A4C764F62466C424E7B
:10533000477A48514A46524945563559347066684D
:105340006B3044444F426F6C31385155586C374A7A
:105350007835546F775176646C41794E38754B458A
:1053600042556C57484373494D67713265715247D6
:105370004D31594658774539455067594E77324730
:105380005070496C4261464C4D4D354D6D4D3768FE
:10539000674471623458624F763646486F367A54A5
:1053A000706E41424F49705734496F596766644186
:1053B000423535426B626F6453326F6C4D755730B6
:1053C0004452344A666A76795837754739703234B0
:1053D000784A504A67385877696F70334539336275
:1053E0004D656D42667279476C4E476D3852416C1F
:1053F000504F555864644D574279527A616A7A52D7
:105400005435363969426A42627A726462694F542D
:10541000427178746435564139384B573758714862
:1054200048646159556A72627539695463414964C7
:105430006A4A3547413352513574437A30326130CC
:1054400046696F573672426D5168376E66725846BC
:10545000386436556D666F5146433258334C693463
:10546000594C59344636446E4D6D54396D6F7849F8
:105470005A54536B3969486757465833414B445720
:105480007849736E4651674E755879757246643720
:1054900070707A446F386A63416D4A32587A503579
:1054A000687353597076715A654E4B6C6346546AF3
:1054B0006944543774515A73544C3150766F704F5D
:1054C000625136534B353535646A774C4D347459D7
:1054D000425A49414F33394C38587662584F7750C9
:1054E000715739396C445364485957766F304E4B75
:1054F00057383042516F4F787A47466E6E544B6E34
:105500004967376642447647655757617331567627
:1055100036334970396167396F426E713945644578
:10552000416D436B34434C66306A333841394247EE
:10553000557033795956474D3633597831434A437C
:10554000395A7866436432376B6A4D4A7377514EE5
:10555000656464744276385654595464506268677E
:10556000714E6851414143787935367746486B52E0
:105570007468754B49413779304A7A3870463147FB
:105580007A316644387858365A4835356E446279EF
:10559000337931583066626F55556554636950559B
:1055A000446B3069676A33346556664F57486B4AB7
:1055B000654C44434A55796772656F5A556D594B2E
:1055C00078314F6672396E385A537A6950396D7036
:1055D00048395A37526C7677516835346554735868
:1055E00051477551664362377578517372666958D1
:1055F000373971397836784A4452684D5961347078
:1056000042756D316973774C79666B585143586EAA
:10561000766B35457A57754739685546546451500D
:10562000653437334E4C425237417158527444738B
:10563000654B72615575394D58783146765135361E
:105640004E4F37344770576A776A4236367038495A
:10565000394737735A504F6870746A79676C696E4E
:10566000727044523277344C6D47546B6B536657AB
:105670005768783065484162796B36544B496E52B1
:105680006954624463306F3054683975496B3053E4
:10569000664C676A4A41303167723834596D4E340E
:1056A000347453693967725052766C6C6648307A3C
:1056B000426746436F5665705A684447334E5631C9
:1056C000674C796D70326D69584D656F64517967BB
:1056D0005663436163573372355A61745963705628
:1056E000384B54564D725A57687256744C34566A39
:1056F0005067314F6B47524578316E46666A703954
:10570000746851685050724D755436537243504D01
:105710004D36395765646B396531395343676232A9
:10572000687465536B6444453977396547337958F4
:10573000774A776F414D386E4D534B324441515A41
:1057400062715166467372427532447430764178A4
:105750004C71355662487365656B6F764353417380
:105760005561376E536E4E485863795730477034E1
:105770006A4E476849667A70774859724E45614A61
:1057800033366434413643424D356D746B4F727A13
:10579000753139646D67644B4E725A43337451737B
:1057A00078644E6E4F514A5A564F77376236666E5E
:1057B0005A744764774249714A784D543443793575
:1057C0004B646E667A42564253766761384E55385E
:1057D0003674557638546F62654D354A38706C4E64
:1057E0006A4A5958664138387839544E7038646678
:1057F000557835314A507A61495254717A3236348B
:10580000565A6759393558336337387841613662AB
:105810004D637857534D38726A494F32723832723D
:105820004678624C504F6E5348766F5045596A33F4
:105830004250453855316B6970744833616158691D
:1058400058456D316F394E6A6A6D355A5935483849
:105850006B6E64796778774E32796B536A46585726
:10586000436A53754A3656386F4C6961586E574CC7
:105870006C426D616E6233535567613975317435B1
:1058800076667833617A41594D496877326D6D7A21
:105890006676376671767744386A36756251384F66
:1058A00074636D7450704C57505759304D7748376A
:1058B000535354355A577554763161393039636EC4
:1058C0003539453047754356756933334272535203
:1058D00034557856437946493262393245777049B2
:1058E0006B6A3466397741454A7939326E5A50507D
:1058F0004954524E58384A754C6A526A4B41367276
:105900003247757A4F436735773235476F4D3144AB
:1059100053556847514E39565A4F646C6268666CED
:105920003949457A466B307661647459324B32316D
:105930006B4753707368526A39654770785230719B
:105940004662446A6D6967386D727570646E6B7417
:105950005953747965713938506D74347669706350
:105960007643454A7546535167664C4D5553483802
:1059700045617237304F6134667336707464616F9D
:105980007768473942475744556543394E31473365
:1059900043386D534C46396661393249495943732E
:1059A0006D574A7837494E7050496E744878434D68
:1059B00052715A65766E786243394A4B665A474F40
:1059C000434866316D723632356D676269724D706B
:1059D00035444753464D644E78725A314452766985
:1059E00075656F38774E616F4B4B73434B6E464B0B
:1059F00038356334527A6F346D4173736E63393363
:105A000062546979614D5273326E3574666773639F
:105A10007058344D6A703270624778536A584250F9
:105A2000534E49674B70547A6977614D49714450C0
:105A300077334679597A42687859426161414D7AA3
:105A4000414A695A4961656138784B394C35576923
:105A5000634A4F366576764B54707261734945558B
:105A600066627554344D39414A78773253376A50FB
:105A7000694238523657344B565231424B467A625D
:105A800059556B477A4C646A683934644A61566682
:105A90006343714B52427052373862636165784894
:105AA000784E473246614A364C436D4D725031361E
:105AB00075656E41417261744F4E4832556C766423
:105AC0004F6A567869504D5552676F4A4B346B7028
:105AD000434F66757950634B314E334530467263A0
